{
    "contractName": "Counter",
    "abi": [
        {
            "anonymous": false,
            "inputs": [
                {
                    "indexed": false,
                    "internalType": "uint256",
                    "name": "value",
                    "type": "uint256"
                }
            ],
            "name": "Decrement",
            "type": "event"
        },
        {
            "anonymous": false,
            "inputs": [
                {
                    "indexed": false,
                    "internalType": "uint256",
                    "name": "value",
                    "type": "uint256"
                }
            ],
            "name": "Increment",
            "type": "event"
        },
        {
            "inputs": [],
            "name": "count",
            "outputs": [
                {
                    "internalType": "uint256",
                    "name": "",
                    "type": "uint256"
                }
            ],
            "stateMutability": "view",
            "type": "function"
        },
        {
            "inputs": [],
            "name": "decrement",
            "outputs": [],
            "stateMutability": "nonpayable",
            "type": "function"
        },
        {
            "inputs": [],
            "name": "getCount",
            "outputs": [
                {
                    "internalType": "uint256",
                    "name": "",
                    "type": "uint256"
                }
            ],
            "stateMutability": "view",
            "type": "function"
        },
        {
            "inputs": [],
            "name": "increment",
            "outputs": [],
            "stateMutability": "nonpayable",
            "type": "function"
        }
    ],
    "bytecode": "60806040526000805534801561001457600080fd5b5061019b806100246000396000f3fe608060405234801561001057600080fd5b506004361061004c5760003560e01c806306661abd146100515780632baeceb71461006c578063a87d942c14610076578063d09de08a1461007e575b600080fd5b61005a60005481565b60405190815260200160405180910390f35b610074610086565b005b60005461005a565b6100746100d6565b60016000808282546100989190610136565b90915550506000546040519081527f32814a5bdfd1b8c3d76c49c54e043d6e8aa93d197a09e16599b567135503f748906020015b60405180910390a1565b60016000808282546100e8919061014d565b90915550506000546040519081527f51af157c2eee40f68107a47a49c32fbbeb0a3c9e5cd37aa56e88e6be92368a81906020016100cc565b634e487b7160e01b600052601160045260246000fd5b60008282101561014857610148610120565b500390565b6000821982111561016057610160610120565b50019056fea264697066735822122088c7943e0f49f01c4fe8939054ad5756cedf85f51810cae8df05b2d536b85ab864736f6c634300080a0033",
    "sourcePath": "/Users/akikoogawa/Desktop/Coding/Blockchain/smart-contracts/contracts/count.sol",
    "compiler": {
        "name": "solc",
        "version": "0.8.10+commit.fc410830"
    },
    "functionHashes": {
        "count()": "06661abd",
        "decrement()": "2baeceb7",
        "getCount()": "a87d942c",
        "increment()": "d09de08a"
    },
    "gasEstimates": {
        "creation": {
            "codeDepositCost": "82200",
            "executionCost": "5135",
            "totalCost": "87335"
        },
        "external": {
            "count()": "2261",
            "decrement()": "27597",
            "getCount()": "2302",
            "increment()": "27655"
        }
    }
}